{
  "contractName": "FraudLedger",
  "abi": [
    {
      "inputs": [
        {
          "internalType": "address",
          "name": "_verifierAddress",
          "type": "address"
        }
      ],
      "stateMutability": "nonpayable",
      "type": "constructor"
    },
    {
      "anonymous": false,
      "inputs": [
        {
          "indexed": true,
          "internalType": "uint256",
          "name": "reportId",
          "type": "uint256"
        },
        {
          "indexed": false,
          "internalType": "string",
          "name": "transactionIdentifier",
          "type": "string"
        }
      ],
      "name": "SecureReportAdded",
      "type": "event"
    },
    {
      "inputs": [],
      "name": "reportCounter",
      "outputs": [
        {
          "internalType": "uint256",
          "name": "",
          "type": "uint256"
        }
      ],
      "stateMutability": "view",
      "type": "function",
      "constant": true
    },
    {
      "inputs": [
        {
          "internalType": "uint256",
          "name": "",
          "type": "uint256"
        }
      ],
      "name": "secureFraudReports",
      "outputs": [
        {
          "internalType": "uint256",
          "name": "reportId",
          "type": "uint256"
        },
        {
          "internalType": "string",
          "name": "transactionIdentifier",
          "type": "string"
        },
        {
          "internalType": "uint256",
          "name": "blockTimestamp",
          "type": "uint256"
        },
        {
          "internalType": "address",
          "name": "reporter",
          "type": "address"
        }
      ],
      "stateMutability": "view",
      "type": "function",
      "constant": true
    },
    {
      "inputs": [
        {
          "internalType": "string",
          "name": "_transactionIdentifier",
          "type": "string"
        },
        {
          "internalType": "uint256[1]",
          "name": "_publicInputs",
          "type": "uint256[1]"
        },
        {
          "internalType": "uint256[2]",
          "name": "a",
          "type": "uint256[2]"
        },
        {
          "internalType": "uint256[2][2]",
          "name": "b",
          "type": "uint256[2][2]"
        },
        {
          "internalType": "uint256[2]",
          "name": "c",
          "type": "uint256[2]"
        }
      ],
      "name": "reportFraudWithProof",
      "outputs": [],
      "stateMutability": "nonpayable",
      "type": "function"
    }
  ],
  "bytecode": "0x608060405234801561001057600080fd5b506040516108fe3803806108fe83398101604081905261002f91610057565b600080546001600160a01b0319166001600160a01b0392909216919091178155600155610087565b60006020828403121561006957600080fd5b81516001600160a01b038116811461008057600080fd5b9392505050565b610868806100966000396000f3fe608060405234801561001057600080fd5b50600436106100415760003560e01c8063b9bc38f214610046578063b9dff30414610062578063c73a1a2714610077575b600080fd5b61004f60015481565b6040519081526020015b60405180910390f35b6100756100703660046104b1565b61009a565b005b61008a61008536600461058f565b610279565b60405161005994939291906105ee565b60005460408051610100810182528551815260208087015181830152855151828401528551810151606083015285810180515160808401525181015160a0830152845160c083015284015160e08201529051635738924360e01b81526001600160a01b0390921691635738924391610116918890600401610628565b602060405180830381865afa158015610133573d6000803e3d6000fd5b505050506040513d601f19601f820116820180604052508101906101579190610686565b6101a75760405162461bcd60e51b815260206004820152601860248201527f5a4b5020766572696669636174696f6e206661696c65642e0000000000000000604482015260640160405180910390fd5b600180549060006101b7836106af565b9091555050604080516080810182526001805480835260208084018a815242858701523360608601526000928352600290915293902082518155925191929190820190610204908261075f565b506040828101516002830155606090920151600390910180546001600160a01b0319166001600160a01b0390921691909117905560015490517f584de9d4c99f1384bc8da5609036ed2bd69048689d25465ca9dd99433a9bc0999061026a90889061081f565b60405180910390a25050505050565b6002602052600090815260409020805460018201805491929161029b906106d6565b80601f01602080910402602001604051908101604052809291908181526020018280546102c7906106d6565b80156103145780601f106102e957610100808354040283529160200191610314565b820191906000526020600020905b8154815290600101906020018083116102f757829003601f168201915b5050505060028301546003909301549192916001600160a01b0316905084565b634e487b7160e01b600052604160045260246000fd5b6040805190810167ffffffffffffffff8111828210171561036d5761036d610334565b60405290565b604051601f8201601f1916810167ffffffffffffffff8111828210171561039c5761039c610334565b604052919050565b600082601f8301126103b557600080fd5b604051602080820182811067ffffffffffffffff821117156103d9576103d9610334565b60405281848201868111156103ed57600080fd5b855b8181101561040657803583529183019183016103ef565b50929695505050505050565b600082601f83011261042357600080fd5b61042b61034a565b80604084018581111561043d57600080fd5b845b8181101561045757803584526020938401930161043f565b509095945050505050565b600082601f83011261047357600080fd5b61047b61034a565b80608084018581111561048d57600080fd5b845b81811015610457576104a18782610412565b845260209093019260400161048f565b600080600080600061014086880312156104ca57600080fd5b853567ffffffffffffffff808211156104e257600080fd5b818801915088601f8301126104f657600080fd5b813560208282111561050a5761050a610334565b61051c601f8301601f19168201610373565b92508183528a8183860101111561053257600080fd5b818185018285013760008183850101528298506105518b828c016103a4565b9750505050506105648760408801610412565b92506105738760808801610462565b9150610583876101008801610412565b90509295509295909350565b6000602082840312156105a157600080fd5b5035919050565b6000815180845260005b818110156105ce576020818501810151868301820152016105b2565b506000602082860101526020601f19601f83011685010191505092915050565b84815260806020820152600061060760808301866105a8565b6040830194909452506001600160a01b039190911660609091015292915050565b6101208101818460005b6008811015610651578151835260209283019290910190600101610632565b50505061010082018360005b600181101561067c57815183526020928301929091019060010161065d565b5050509392505050565b60006020828403121561069857600080fd5b815180151581146106a857600080fd5b9392505050565b6000600182016106cf57634e487b7160e01b600052601160045260246000fd5b5060010190565b600181811c908216806106ea57607f821691505b60208210810361070a57634e487b7160e01b600052602260045260246000fd5b50919050565b601f82111561075a57600081815260208120601f850160051c810160208610156107375750805b601f850160051c820191505b8181101561075657828155600101610743565b5050505b505050565b815167ffffffffffffffff81111561077957610779610334565b61078d8161078784546106d6565b84610710565b602080601f8311600181146107c257600084156107aa5750858301515b600019600386901b1c1916600185901b178555610756565b600085815260208120601f198616915b828110156107f1578886015182559484019460019091019084016107d2565b508582101561080f5787850151600019600388901b60f8161c191681555b5050505050600190811b01905550565b6020815260006106a860208301846105a856fea2646970667358221220dbfe22983a4151ac20ac05da16bebf6eb4892d0413de2e8b10c65aa62bc116c464736f6c63430008140033",
  "immutableReferences": {},
  "source": "// contracts/FraudLedger.sol\r\n// SPDX-License-Identifier: MIT\r\npragma solidity ^0.8.19;\r\nimport \"./Verifier.sol\";\r\n\r\ncontract FraudLedger {\r\n    Verifier private verifier;\r\n\r\n    struct SecureFraudReport {\r\n        uint256 reportId;\r\n        string transactionIdentifier;\r\n        uint256 blockTimestamp;\r\n        address reporter;\r\n    }\r\n\r\n    uint256 public reportCounter;\r\n    mapping(uint256 => SecureFraudReport) public secureFraudReports;\r\n\r\n    event SecureReportAdded(uint256 indexed reportId, string transactionIdentifier);\r\n\r\n    constructor(address _verifierAddress) {\r\n        verifier = Verifier(_verifierAddress);\r\n        reportCounter = 0;\r\n    }\r\n\r\n    function reportFraudWithProof(\r\n        string memory _transactionIdentifier,\r\n        uint[1] memory _publicInputs,\r\n        uint[2] memory a,\r\n        uint[2][2] memory b,\r\n        uint[2] memory c\r\n    ) public {\r\n        // Require that the ZKP is valid before proceeding\r\n        require(verifier.verifyTx(\r\n            [a[0], a[1], b[0][0], b[0][1], b[1][0], b[1][1], c[0], c[1]],\r\n            _publicInputs\r\n        ), \"ZKP verification failed.\");\r\n\r\n        reportCounter++;\r\n        secureFraudReports[reportCounter] = SecureFraudReport(\r\n            reportCounter,\r\n            _transactionIdentifier,\r\n            block.timestamp,\r\n            msg.sender\r\n        );\r\n\r\n        emit SecureReportAdded(reportCounter, _transactionIdentifier);\r\n    }\r\n}",
  "sourcePath": "D:\\MajorProject\\MajorProject\\Backend\\contracts\\FraudLedger.sol",
  "compiler": {
    "name": "solc",
    "version": "0.8.20+commit.a1b79de6.Emscripten.clang"
  },
  "schemaVersion": "3.4.16",
  "updatedAt": "2025-10-03T05:37:02.713Z",
  "networkType": "ethereum",
  "devdoc": {
    "kind": "dev",
    "methods": {},
    "version": 1
  },
  "userdoc": {
    "kind": "user",
    "methods": {},
    "version": 1
  }
}