{
  "contractName": "FraudMitigator",
  "abi": [
    {
      "inputs": [
        {
          "internalType": "address",
          "name": "_ledgerAddress",
          "type": "address"
        }
      ],
      "stateMutability": "nonpayable",
      "type": "constructor"
    },
    {
      "anonymous": false,
      "inputs": [
        {
          "indexed": true,
          "internalType": "address",
          "name": "userAccount",
          "type": "address"
        }
      ],
      "name": "AccountFrozen",
      "type": "event"
    },
    {
      "anonymous": false,
      "inputs": [
        {
          "indexed": false,
          "internalType": "string",
          "name": "transactionIdentifier",
          "type": "string"
        }
      ],
      "name": "MfaTriggered",
      "type": "event"
    },
    {
      "inputs": [
        {
          "internalType": "address",
          "name": "",
          "type": "address"
        }
      ],
      "name": "frozenAccounts",
      "outputs": [
        {
          "internalType": "bool",
          "name": "",
          "type": "bool"
        }
      ],
      "stateMutability": "view",
      "type": "function",
      "constant": true
    },
    {
      "inputs": [],
      "name": "owner",
      "outputs": [
        {
          "internalType": "address",
          "name": "",
          "type": "address"
        }
      ],
      "stateMutability": "view",
      "type": "function",
      "constant": true
    },
    {
      "inputs": [
        {
          "internalType": "uint256",
          "name": "riskScore",
          "type": "uint256"
        },
        {
          "internalType": "address",
          "name": "userAccount",
          "type": "address"
        },
        {
          "internalType": "string",
          "name": "transactionIdentifier",
          "type": "string"
        },
        {
          "internalType": "uint256[1]",
          "name": "publicInputs",
          "type": "uint256[1]"
        },
        {
          "internalType": "uint256[2]",
          "name": "a",
          "type": "uint256[2]"
        },
        {
          "internalType": "uint256[2][2]",
          "name": "b",
          "type": "uint256[2][2]"
        },
        {
          "internalType": "uint256[2]",
          "name": "c",
          "type": "uint256[2]"
        }
      ],
      "name": "executeResponse",
      "outputs": [],
      "stateMutability": "nonpayable",
      "type": "function"
    }
  ],
  "bytecode": "0x608060405234801561001057600080fd5b5060405161072138038061072183398101604081905261002f9161005d565b600180546001600160a01b039092166001600160a01b0319928316179055600080549091163317905561008d565b60006020828403121561006f57600080fd5b81516001600160a01b038116811461008657600080fd5b9392505050565b6106858061009c6000396000f3fe608060405234801561001057600080fd5b50600436106100415760003560e01c8063860838a5146100465780638da5cb5b1461007e578063f367b558146100a9575b600080fd5b61006961005436600461029f565b60026020526000908152604090205460ff1681565b60405190151581526020015b60405180910390f35b600054610091906001600160a01b031681565b6040516001600160a01b039091168152602001610075565b6100bc6100b736600461043e565b6100be565b005b6000546001600160a01b031633146101425760405162461bcd60e51b815260206004820152603760248201527f4f6e6c7920746865206f776e657220287468652041504920736572766572292060448201527f63616e2063616c6c20746869732066756e6374696f6e2e000000000000000000606482015260840160405180910390fd5b605587106101c257610153866101dc565b600154604051632e77fcc160e21b81526001600160a01b039091169063b9dff3049061018b90889088908890889088906004016105a5565b600060405180830381600087803b1580156101a557600080fd5b505af11580156101b9573d6000803e3d6000fd5b505050506101d3565b603c87106101d3576101d385610249565b50505050505050565b6001600160a01b03811660009081526002602052604090205460ff16610246576001600160a01b038116600081815260026020526040808220805460ff19166001179055517f4f2a367e694e71282f29ab5eaa04c4c0be45ac5bf2ca74fb67068b98bdc2887d9190a25b50565b7fffb908f98a3d1751897ce265093086d477fff5a760f191ea7fc754e6d8cccd1481604051610278919061063c565b60405180910390a150565b80356001600160a01b038116811461029a57600080fd5b919050565b6000602082840312156102b157600080fd5b6102ba82610283565b9392505050565b634e487b7160e01b600052604160045260246000fd5b6040805190810167ffffffffffffffff811182821017156102fa576102fa6102c1565b60405290565b604051601f8201601f1916810167ffffffffffffffff81118282101715610329576103296102c1565b604052919050565b600082601f83011261034257600080fd5b604051602080820182811067ffffffffffffffff82111715610366576103666102c1565b604052818482018681111561037a57600080fd5b855b81811015610393578035835291830191830161037c565b50929695505050505050565b600082601f8301126103b057600080fd5b6103b86102d7565b8060408401858111156103ca57600080fd5b845b818110156103e45780358452602093840193016103cc565b509095945050505050565b600082601f83011261040057600080fd5b6104086102d7565b80608084018581111561041a57600080fd5b845b818110156103e45761042e878261039f565b845260209093019260400161041c565b6000806000806000806000610180888a03121561045a57600080fd5b87359650602061046b818a01610283565b9650604089013567ffffffffffffffff8082111561048857600080fd5b818b0191508b601f83011261049c57600080fd5b8135818111156104ae576104ae6102c1565b6104c0601f8201601f19168501610300565b91508082528c848285010111156104d657600080fd5b80848401858401376000848284010152508097505050506104fa8960608a01610331565b93506105098960808a0161039f565b92506105188960c08a016103ef565b9150610528896101408a0161039f565b905092959891949750929550565b6000815180845260005b8181101561055c57602081850181015186830182015201610540565b506000602082860101526020601f19601f83011685010191505092915050565b8060005b600281101561059f578151845260209384019390910190600101610580565b50505050565b60006101408083526105b981840189610536565b91505060208083018760005b60018110156105e2578151835291830191908301906001016105c5565b50505060406105f38185018861057c565b608084018660005b600281101561061f5761060f83835161057c565b91830191908401906001016105fb565b505050505061063261010083018461057c565b9695505050505050565b6020815260006102ba602083018461053656fea264697066735822122055ed6f2a2be1002dc8685b5a4cc578955c22902f07f99c6d2267e86186ae271064736f6c63430008140033",
  "immutableReferences": {},
  "source": "// contracts/FraudMitigator.sol\r\n// SPDX-License-Identifier: MIT\r\npragma solidity ^0.8.19;\r\nimport \"./FraudLedger.sol\";\r\n\r\ncontract FraudMitigator {\r\n    address public owner;\r\n    FraudLedger private fraudLedger;\r\n    mapping(address => bool) public frozenAccounts;\r\n\r\n    event AccountFrozen(address indexed userAccount);\r\n    event MfaTriggered(string transactionIdentifier);\r\n\r\n    constructor(address _ledgerAddress) {\r\n        fraudLedger = FraudLedger(_ledgerAddress);\r\n        owner = msg.sender;\r\n    }\r\n\r\n    modifier onlyOwner() {\r\n        require(msg.sender == owner, \"Only the owner (the API server) can call this function.\");\r\n        _;\r\n    }\r\n\r\n    function freezeAccount(address _userAccount) internal {\r\n        if (!frozenAccounts[_userAccount]) {\r\n            frozenAccounts[_userAccount] = true;\r\n            emit AccountFrozen(_userAccount);\r\n        }\r\n    }\r\n\r\n    function triggerMfa(string memory _transactionIdentifier) internal {\r\n        emit MfaTriggered(_transactionIdentifier);\r\n    }\r\n\r\n    function executeResponse(\r\n        uint256 riskScore,\r\n        address userAccount,\r\n        string memory transactionIdentifier,\r\n        uint[1] memory publicInputs,\r\n        uint[2] memory a,\r\n        uint[2][2] memory b,\r\n        uint[2] memory c\r\n    ) public onlyOwner {\r\n        if (riskScore >= 85) { // High Risk\r\n            freezeAccount(userAccount);\r\n            fraudLedger.reportFraudWithProof(transactionIdentifier, publicInputs, a, b, c);\r\n        } else if (riskScore >= 60) { // Medium Risk\r\n            triggerMfa(transactionIdentifier);\r\n        }\r\n        // If low risk, do nothing.\r\n    }\r\n}",
  "sourcePath": "D:\\MajorProject\\MajorProject\\Backend\\contracts\\FraudMitigator.sol",
  "compiler": {
    "name": "solc",
    "version": "0.8.20+commit.a1b79de6.Emscripten.clang"
  },
  "schemaVersion": "3.4.16",
  "updatedAt": "2025-10-01T05:30:07.543Z",
  "networkType": "ethereum",
  "devdoc": {
    "kind": "dev",
    "methods": {},
    "version": 1
  },
  "userdoc": {
    "kind": "user",
    "methods": {},
    "version": 1
  }
}