{
  "contractName": "Verifier",
  "abi": [
    {
      "inputs": [
        {
          "internalType": "uint256[8]",
          "name": "proof",
          "type": "uint256[8]"
        },
        {
          "internalType": "uint256[1]",
          "name": "input",
          "type": "uint256[1]"
        }
      ],
      "name": "verifyTx",
      "outputs": [
        {
          "internalType": "bool",
          "name": "",
          "type": "bool"
        }
      ],
      "stateMutability": "pure",
      "type": "function",
      "constant": true
    }
  ],
  "bytecode": "0x608060405234801561001057600080fd5b506101a6806100206000396000f3fe608060405234801561001057600080fd5b506004361061002b5760003560e01c80635738924314610030575b600080fd5b61004661003e3660046100d1565b506001919050565b604051901515815260200160405180910390f35b634e487b7160e01b600052604160045260246000fd5b6000604051602080820182811067ffffffffffffffff821117156100965761009661005a565b8060405250819250808401858111156100ae57600080fd5b845b818110156100c757803584529282019282016100b0565b5050505092915050565b60008061012083850312156100e557600080fd5b83601f8401126100f457600080fd5b60405161010080820182811067ffffffffffffffff821117156101195761011961005a565b6040528401818682111561012c57600080fd5b855b8281101561014657803582526020918201910161012e565b50508193508561011f86011261015b57600080fd5b6101658682610070565b92505050925092905056fea2646970667358221220e9f8389cf8c9f191e6edff653e8bc29afec1b8d49149e70571ac24c81210298064736f6c63430008140033",
  "immutableReferences": {},
  "source": "// contracts/Verifier.sol\r\n// SPDX-License-Identifier: MIT\r\npragma solidity ^0.8.19;\r\n\r\n// This is a placeholder Verifier contract for demonstration.\r\n// In a real system, this would contain complex cryptographic logic.\r\ncontract Verifier {\r\n    function verifyTx(\r\n        uint256[8] memory proof,\r\n        uint256[1] memory input\r\n    ) public pure returns (bool) {\r\n        // For this project, we simulate a successful verification\r\n        // as long as the inputs have the correct shape.\r\n        return (proof.length == 8 && input.length == 1);\r\n    }\r\n}",
  "sourcePath": "D:\\MajorProject\\MajorProject\\Backend\\contracts\\Verifier.sol",
  "compiler": {
    "name": "solc",
    "version": "0.8.20+commit.a1b79de6.Emscripten.clang"
  },
  "schemaVersion": "3.4.16",
  "updatedAt": "2025-10-03T05:37:02.706Z",
  "networkType": "ethereum",
  "devdoc": {
    "kind": "dev",
    "methods": {},
    "version": 1
  },
  "userdoc": {
    "kind": "user",
    "methods": {},
    "version": 1
  }
}